{
    "contractName": "ServicePayment",
    "abi": [
        {
            "inputs": [],
            "stateMutability": "nonpayable",
            "type": "constructor"
        },
        {
            "anonymous": false,
            "inputs": [
                {
                    "indexed": false,
                    "internalType": "uint256",
                    "name": "serviceId",
                    "type": "uint256"
                },
                {
                    "indexed": false,
                    "internalType": "address",
                    "name": "client",
                    "type": "address"
                },
                {
                    "indexed": false,
                    "internalType": "uint256",
                    "name": "amountPaid",
                    "type": "uint256"
                }
            ],
            "name": "ServicePaid",
            "type": "event"
        },
        {
            "anonymous": false,
            "inputs": [
                {
                    "indexed": false,
                    "internalType": "uint256",
                    "name": "serviceId",
                    "type": "uint256"
                },
                {
                    "indexed": false,
                    "internalType": "address",
                    "name": "client",
                    "type": "address"
                },
                {
                    "indexed": false,
                    "internalType": "string",
                    "name": "serviceType",
                    "type": "string"
                },
                {
                    "indexed": false,
                    "internalType": "string",
                    "name": "specificService",
                    "type": "string"
                },
                {
                    "indexed": false,
                    "internalType": "uint256",
                    "name": "ethAmount",
                    "type": "uint256"
                }
            ],
            "name": "ServiceRequested",
            "type": "event"
        },
        {
            "inputs": [
                {
                    "internalType": "string",
                    "name": "_serviceType",
                    "type": "string"
                },
                {
                    "internalType": "string",
                    "name": "_specificService",
                    "type": "string"
                },
                {
                    "internalType": "uint256",
                    "name": "_ethAmount",
                    "type": "uint256"
                }
            ],
            "name": "createServiceRequest",
            "outputs": [],
            "stateMutability": "nonpayable",
            "type": "function"
        },
        {
            "inputs": [],
            "name": "owner",
            "outputs": [
                {
                    "internalType": "address",
                    "name": "",
                    "type": "address"
                }
            ],
            "stateMutability": "view",
            "type": "function"
        },
        {
            "inputs": [
                {
                    "internalType": "uint256",
                    "name": "serviceId",
                    "type": "uint256"
                }
            ],
            "name": "payForService",
            "outputs": [],
            "stateMutability": "payable",
            "type": "function"
        },
        {
            "inputs": [],
            "name": "serviceCounter",
            "outputs": [
                {
                    "internalType": "uint256",
                    "name": "",
                    "type": "uint256"
                }
            ],
            "stateMutability": "view",
            "type": "function"
        },
        {
            "inputs": [
                {
                    "internalType": "uint256",
                    "name": "",
                    "type": "uint256"
                }
            ],
            "name": "serviceRequests",
            "outputs": [
                {
                    "internalType": "string",
                    "name": "serviceType",
                    "type": "string"
                },
                {
                    "internalType": "string",
                    "name": "specificService",
                    "type": "string"
                },
                {
                    "internalType": "address payable",
                    "name": "client",
                    "type": "address"
                },
                {
                    "internalType": "uint256",
                    "name": "ethAmount",
                    "type": "uint256"
                },
                {
                    "internalType": "bool",
                    "name": "isPaid",
                    "type": "bool"
                }
            ],
            "stateMutability": "view",
            "type": "function"
        }
    ],
    "bytecode": "608080604052346026575f80546001600160a01b031916331790556107d1908161002b8239f35b5f80fdfe60806040526004361015610011575f80fd5b5f3560e01c8062050a3c14610264578063459492bb146101d55780637defdd73146101b85780638da5cb5b146101915763dbec6def1461004f575f80fd5b602036600319011261018d57600435805f52600160205260405f206003810154340361014857600481019060ff82541661010357600201545f9081908190819081906001600160a01b031634156100f9575b3491f1156100ee577f44a6217efa65c0de7a784d631002fa9bf2f8ff1c069f7a7b990e8ff7772275ea91606091600160ff19825416179055604051908152336020820152346040820152a1005b6040513d5f823e3d90fd5b6108fc91506100a1565b60405162461bcd60e51b815260206004820152601960248201527f5365727669636520616c7265616479207061696420666f722e000000000000006044820152606490fd5b60405162461bcd60e51b815260206004820152601960248201527f496e636f7272656374207061796d656e7420616d6f756e742e000000000000006044820152606490fd5b5f80fd5b3461018d575f36600319011261018d575f546040516001600160a01b039091168152602090f35b3461018d575f36600319011261018d576020600254604051908152f35b3461018d57602036600319011261018d576004355f52600160205261024060405f20610200816106d7565b9061020d600182016106d7565b60018060a01b036002830154169161024e60ff60046003840154930154169260405196879660a0885260a0880190610777565b908682036020880152610777565b9260408501526060840152151560808301520390f35b3461018d57606036600319011261018d5760043567ffffffffffffffff811161018d57610295903690600401610649565b60243567ffffffffffffffff811161018d576102b5903690600401610649565b90604435916002545f1981146106135760010192836002556040519360a0850185811067ffffffffffffffff82111761054157604052838552602085019483865260408101338152606082019084825260808301935f85525f52600160205260405f20925180519067ffffffffffffffff8211610541578190610338865461069f565b601f81116105c3575b50602090601f8311600114610560575f92610555575b50508160011b915f199060031b1c19161783555b60018301975197885167ffffffffffffffff81116105415761038d825461069f565b601f81116104fc575b506020601f8211600114610473579080600496959493927f69bfcc08597104e1e9e019f5e5895afd419d52e9252a10f9374cb9e7cbf3239a9c5f92610468575b50508160011b915f199060031b1c19161790555b600283019060018060a01b039051166bffffffffffffffffffffffff60a01b825416179055516003820155019051151560ff8019835416911617905561045d6002549261044f604051958695865233602087015260a0604087015260a0860190610777565b908482036060860152610777565b9060808301520390a1005b015190508c806103d6565b601f1982169a835f52815f209b5f5b8181106104e457509b6001928492600499989796957f69bfcc08597104e1e9e019f5e5895afd419d52e9252a10f9374cb9e7cbf3239a9f106104cc575b505050811b0190556103ea565b01515f1960f88460031b161c191690558c80806104bf565b838301518e556001909d019c60209384019301610482565b825f5260205f20601f830160051c81019160208410610537575b601f0160051c01905b81811061052c5750610396565b5f815560010161051f565b9091508190610516565b634e487b7160e01b5f52604160045260245ffd5b015190508a80610357565b5f8781528281209350601f198516905b8181106105ab5750908460019594939210610593575b505050811b01835561036b565b01515f1960f88460031b161c191690558a8080610586565b92936020600181928786015181550195019301610570565b909150855f5260205f20601f840160051c81019160208510610609575b90601f859493920160051c01905b8181106105fb5750610341565b5f81558493506001016105ee565b90915081906105e0565b634e487b7160e01b5f52601160045260245ffd5b90601f8019910116810190811067ffffffffffffffff82111761054157604052565b81601f8201121561018d5780359067ffffffffffffffff8211610541576040519261067e601f8401601f191660200185610627565b8284526020838301011161018d57815f926020809301838601378301015290565b90600182811c921680156106cd575b60208310146106b957565b634e487b7160e01b5f52602260045260245ffd5b91607f16916106ae565b9060405191825f8254926106ea8461069f565b80845293600181169081156107555750600114610711575b5061070f92500383610627565b565b90505f9291925260205f20905f915b81831061073957505090602061070f928201015f610702565b6020919350806001915483858901015201910190918492610720565b90506020925061070f94915060ff191682840152151560051b8201015f610702565b805180835260209291819084018484015e5f828201840152601f01601f191601019056fea2646970667358221220c2edbd706e2a4169137c7498f52a150bc465a86fd6b7e2f70550596ca0f68b9a64736f6c634300081b0033",
    "sourcePath": "e:/nn/FYP/contracts/ServicePayment.sol",
    "compiler": {
        "name": "solc",
        "version": "0.8.27+commit.40a35a09"
    },
    "functionHashes": {
        "createServiceRequest(string,string,uint256)": "00050a3c",
        "owner()": "8da5cb5b",
        "payForService(uint256)": "dbec6def",
        "serviceCounter()": "7defdd73",
        "serviceRequests(uint256)": "459492bb"
    },
    "gasEstimates": {
        "creation": {
            "codeDepositCost": "400200",
            "executionCost": "24677",
            "totalCost": "424877"
        },
        "external": {
            "createServiceRequest(string,string,uint256)": "infinite",
            "owner()": "2337",
            "payForService(uint256)": "infinite",
            "serviceCounter()": "2292",
            "serviceRequests(uint256)": "infinite"
        }
    }
}