{
  "contractName": "ServicePayment",
  "abi": [
    {
      "inputs": [],
      "stateMutability": "nonpayable",
      "type": "constructor"
    },
    {
      "anonymous": false,
      "inputs": [
        {
          "indexed": true,
          "internalType": "address",
          "name": "from",
          "type": "address"
        },
        {
          "indexed": false,
          "internalType": "uint256",
          "name": "amount",
          "type": "uint256"
        }
      ],
      "name": "PaymentReceived",
      "type": "event"
    },
    {
      "inputs": [],
      "name": "owner",
      "outputs": [
        {
          "internalType": "address",
          "name": "",
          "type": "address"
        }
      ],
      "stateMutability": "view",
      "type": "function"
    },
    {
      "inputs": [],
      "name": "payForService",
      "outputs": [],
      "stateMutability": "payable",
      "type": "function"
    },
    {
      "inputs": [],
      "name": "withdraw",
      "outputs": [],
      "stateMutability": "nonpayable",
      "type": "function"
    },
    {
      "inputs": [],
      "name": "getBalance",
      "outputs": [
        {
          "internalType": "uint256",
          "name": "",
          "type": "uint256"
        }
      ],
      "stateMutability": "view",
      "type": "function"
    }
  ],
  "bytecode": "0x608060405234801561001057600080fd5b50336000806101000a81548173ffffffffffffffffffffffffffffffffffffffff021916908373ffffffffffffffffffffffffffffffffffffffff160217905550610420806100606000396000f3fe60806040526004361061003f5760003560e01c806312065fe0146100445780633ccfd60b1461006f5780638da5cb5b14610086578063a22c6f41146100b1575b600080fd5b34801561005057600080fd5b506100596100bb565b604051610066919061028a565b60405180910390f35b34801561007b57600080fd5b506100846100c3565b005b34801561009257600080fd5b5061009b6101ba565b6040516100a891906102e6565b60405180910390f35b6100b96101de565b005b600047905090565b60008054906101000a900473ffffffffffffffffffffffffffffffffffffffff1673ffffffffffffffffffffffffffffffffffffffff163373ffffffffffffffffffffffffffffffffffffffff1614610151576040517f08c379a00000000000000000000000000000000000000000000000000000000081526004016101489061035e565b60405180910390fd5b60008054906101000a900473ffffffffffffffffffffffffffffffffffffffff1673ffffffffffffffffffffffffffffffffffffffff166108fc479081150290604051600060405180830381858888f193505050501580156101b7573d6000803e3d6000fd5b50565b60008054906101000a900473ffffffffffffffffffffffffffffffffffffffff1681565b60003411610221576040517f08c379a0000000000000000000000000000000000000000000000000000000008152600401610218906103ca565b60405180910390fd5b3373ffffffffffffffffffffffffffffffffffffffff167f6ef95f06320e7a25a04a175ca677b7052bdd97131872c2192525a629f51be77034604051610267919061028a565b60405180910390a2565b6000819050919050565b61028481610271565b82525050565b600060208201905061029f600083018461027b565b92915050565b600073ffffffffffffffffffffffffffffffffffffffff82169050919050565b60006102d0826102a5565b9050919050565b6102e0816102c5565b82525050565b60006020820190506102fb60008301846102d7565b92915050565b600082825260208201905092915050565b7f4f6e6c79206f776e65722063616e207769746864726177000000000000000000600082015250565b6000610348601783610301565b915061035382610312565b602082019050919050565b600060208201905081810360008301526103778161033b565b9050919050565b7f5061796d656e74206d7573742062652067726561746572207468616e20300000600082015250565b60006103b4601e83610301565b91506103bf8261037e565b602082019050919050565b600060208201905081810360008301526103e3816103a7565b905091905056fea264697066735822122018e9eadc6ea260781d1bd427e05c6809af2a5c98111d188bc6cb80c962a066b964736f6c634300080d0033",
  "immutableReferences": {},
  "source": "// SPDX-License-Identifier: MIT\r\npragma solidity ^0.8.0;\r\n\r\ncontract ServicePayment {\r\n    address public owner;\r\n\r\n    event PaymentReceived(address indexed from, uint256 amount);\r\n\r\n    constructor() {\r\n        owner = msg.sender; // Owner is the contract deployer\r\n    }\r\n\r\n    // Pay for a service in ETH\r\n    function payForService() public payable {\r\n        require(msg.value > 0, \"Payment must be greater than 0\");\r\n        emit PaymentReceived(msg.sender, msg.value);\r\n    }\r\n\r\n    // Withdraw funds to the owner's address\r\n    function withdraw() public {\r\n        require(msg.sender == owner, \"Only owner can withdraw\");\r\n        payable(owner).transfer(address(this).balance);\r\n    }\r\n\r\n    // Get the contract balance (to check if funds are received)\r\n    function getBalance() public view returns (uint256) {\r\n        return address(this).balance;\r\n    }\r\n}\r\n",
  "sourcePath": "E:\\nn\\FYP\\contracts\\ServicePayment.sol",
  "compiler": {
    "name": "solc",
    "version": "0.8.13+commit.abaa5c0e.Emscripten.clang"
  },
  "schemaVersion": "3.4.16",
  "updatedAt": "2024-10-06T14:15:55.719Z",
  "devdoc": {
    "kind": "dev",
    "methods": {},
    "version": 1
  },
  "userdoc": {
    "kind": "user",
    "methods": {},
    "version": 1
  }
}